{
  "address": "0xcECA8f33E7317e5187b4FA8A8708E5813664e987",
  "abi": [
    {
      "anonymous": false,
      "inputs": [
        {
          "indexed": true,
          "internalType": "address",
          "name": "_nftOwner",
          "type": "address"
        },
        {
          "indexed": true,
          "internalType": "address",
          "name": "_nftAddress",
          "type": "address"
        },
        {
          "indexed": false,
          "internalType": "uint256",
          "name": "_nftId",
          "type": "uint256"
        },
        {
          "indexed": false,
          "internalType": "string",
          "name": "_inscription",
          "type": "string"
        },
        {
          "indexed": false,
          "internalType": "uint256",
          "name": "_burried",
          "type": "uint256"
        }
      ],
      "name": "nftBurried",
      "type": "event"
    },
    {
      "inputs": [],
      "name": "BURN_ADDRESS",
      "outputs": [
        {
          "internalType": "address",
          "name": "",
          "type": "address"
        }
      ],
      "stateMutability": "view",
      "type": "function"
    },
    {
      "inputs": [
        {
          "internalType": "address",
          "name": "nftAddress",
          "type": "address"
        },
        {
          "internalType": "uint256",
          "name": "tokenId",
          "type": "uint256"
        },
        {
          "internalType": "string",
          "name": "inscription",
          "type": "string"
        }
      ],
      "name": "burryMyNFT",
      "outputs": [],
      "stateMutability": "nonpayable",
      "type": "function"
    },
    {
      "inputs": [
        {
          "internalType": "uint256",
          "name": "page",
          "type": "uint256"
        },
        {
          "internalType": "uint256",
          "name": "pageSize",
          "type": "uint256"
        }
      ],
      "name": "getGraveyard",
      "outputs": [
        {
          "components": [
            {
              "internalType": "address",
              "name": "nftOwner",
              "type": "address"
            },
            {
              "internalType": "address",
              "name": "nftContract",
              "type": "address"
            },
            {
              "internalType": "uint256",
              "name": "nftId",
              "type": "uint256"
            },
            {
              "internalType": "string",
              "name": "inscription",
              "type": "string"
            },
            {
              "internalType": "uint256",
              "name": "burried",
              "type": "uint256"
            }
          ],
          "internalType": "struct NFTCemetery.Grave[]",
          "name": "",
          "type": "tuple[]"
        },
        {
          "internalType": "uint256",
          "name": "",
          "type": "uint256"
        }
      ],
      "stateMutability": "view",
      "type": "function"
    },
    {
      "inputs": [
        {
          "internalType": "uint256",
          "name": "",
          "type": "uint256"
        }
      ],
      "name": "graveyard",
      "outputs": [
        {
          "internalType": "address",
          "name": "nftOwner",
          "type": "address"
        },
        {
          "internalType": "address",
          "name": "nftContract",
          "type": "address"
        },
        {
          "internalType": "uint256",
          "name": "nftId",
          "type": "uint256"
        },
        {
          "internalType": "string",
          "name": "inscription",
          "type": "string"
        },
        {
          "internalType": "uint256",
          "name": "burried",
          "type": "uint256"
        }
      ],
      "stateMutability": "view",
      "type": "function"
    }
  ],
  "transactionHash": "0x9a51c70f3431c844de00b738538fd642f9ccbf23630b8390aad13630dd77d25c",
  "args": [],
  "numDeployments": 1,
  "solcInputHash": "7a33b6096e099ea05066b0bd1523b99e",
  "bytecode": "0x608060405234801561001057600080fd5b50610b3e806100206000396000f3fe608060405234801561001057600080fd5b506004361061004c5760003560e01c80632680193d1461005157806339b9a26314610066578063b31874f514610090578063fccc2813146100b4575b600080fd5b61006461005f3660046106c4565b6100d4565b005b61007961007436600461079d565b61030e565b604051610087929190610805565b60405180910390f35b6100a361009e3660046108b0565b6105d4565b6040516100879594939291906108c9565b6100bc600181565b6040516001600160a01b039091168152602001610087565b60148151111561013c5760405162461bcd60e51b815260206004820152602860248201527f496e736372697074696f6e206973206c696d6974656420746f203230206368616044820152673930b1ba32b9399760c11b60648201526084015b60405180910390fd5b604051632142170760e11b815233600482015260016024820152604481018390526001600160a01b038416906342842e0e90606401600060405180830381600087803b15801561018b57600080fd5b505af115801561019f573d6000803e3d6000fd5b50506040805160a0810182523381526001600160a01b03878116602083019081529282018781526060830187815243608085015260008054600181018255908052845160059091027f290decd9548b62a8d60345a988386fc84ba6bc95484008f6362f93160ef3e563810180549286166001600160a01b031993841617815596517f290decd9548b62a8d60345a988386fc84ba6bc95484008f6362f93160ef3e564820180549190961692169190911790935590517f290decd9548b62a8d60345a988386fc84ba6bc95484008f6362f93160ef3e565830155519194508493507f290decd9548b62a8d60345a988386fc84ba6bc95484008f6362f93160ef3e56601906102ac9082610997565b50608082015181600401555050836001600160a01b0316336001600160a01b03167f074db99628908764de164dc70bdd015172fa4dddd29dcc199cd2ca917ceb881e85854360405161030093929190610a57565b60405180910390a350505050565b6060600080841161036d5760405162461bcd60e51b8152602060048201526024808201527f70616765206e756d6265722073686f756c6420626520677265617465722074686044820152630616e20360e41b6064820152608401610133565b600083116103c75760405162461bcd60e51b815260206004820152602160248201527f7061676553697a652073686f756c642062652067726561746572207468616e206044820152600360fc1b6064820152608401610133565b6000805490846103d8600188610a96565b6103e29190610aaf565b90506000826103f18784610ac6565b11610405576104008683610ac6565b610407565b825b905060006104158383610a96565b67ffffffffffffffff81111561042d5761042d6106ae565b60405190808252806020026020018201604052801561048557816020015b6040805160a081018252600080825260208083018290529282018190526060808301526080820152825260001990920191018161044b5790505b509050825b828110156105c657600081815481106104a5576104a5610ad9565b60009182526020918290206040805160a081018252600590930290910180546001600160a01b039081168452600182015416938301939093526002830154908201526003820180549192916060840191906104ff9061090e565b80601f016020809104026020016040519081016040528092919081815260200182805461052b9061090e565b80156105785780601f1061054d57610100808354040283529160200191610578565b820191906000526020600020905b81548152906001019060200180831161055b57829003601f168201915b505050505081526020016004820154815250508285836105989190610a96565b815181106105a8576105a8610ad9565b602002602001018190525080806105be90610aef565b91505061048a565b509792965091945050505050565b600081815481106105e457600080fd5b600091825260209091206005909102018054600182015460028301546003840180546001600160a01b0394851696509290931693909290916106259061090e565b80601f01602080910402602001604051908101604052809291908181526020018280546106519061090e565b801561069e5780601f106106735761010080835404028352916020019161069e565b820191906000526020600020905b81548152906001019060200180831161068157829003601f168201915b5050505050908060040154905085565b634e487b7160e01b600052604160045260246000fd5b6000806000606084860312156106d957600080fd5b83356001600160a01b03811681146106f057600080fd5b925060208401359150604084013567ffffffffffffffff8082111561071457600080fd5b818601915086601f83011261072857600080fd5b81358181111561073a5761073a6106ae565b604051601f8201601f19908116603f01168101908382118183101715610762576107626106ae565b8160405282815289602084870101111561077b57600080fd5b8260208601602083013760006020848301015280955050505050509250925092565b600080604083850312156107b057600080fd5b50508035926020909101359150565b6000815180845260005b818110156107e5576020818501810151868301820152016107c9565b506000602082860101526020601f19601f83011685010191505092915050565b60006040808301818452808651808352606092508286019150828160051b8701016020808a0160005b8481101561089b57898403605f19018652815180516001600160a01b03908116865284820151168486015288810151898601528781015160a08987018190529061087a828801826107bf565b6080938401519790930196909652509583019593509082019060010161082e565b50509690960196909652509295945050505050565b6000602082840312156108c257600080fd5b5035919050565b6001600160a01b038681168252851660208201526040810184905260a0606082018190526000906108fc908301856107bf565b90508260808301529695505050505050565b600181811c9082168061092257607f821691505b60208210810361094257634e487b7160e01b600052602260045260246000fd5b50919050565b601f82111561099257600081815260208120601f850160051c8101602086101561096f5750805b601f850160051c820191505b8181101561098e5782815560010161097b565b5050505b505050565b815167ffffffffffffffff8111156109b1576109b16106ae565b6109c5816109bf845461090e565b84610948565b602080601f8311600181146109fa57600084156109e25750858301515b600019600386901b1c1916600185901b17855561098e565b600085815260208120601f198616915b82811015610a2957888601518255948401946001909101908401610a0a565b5085821015610a475787850151600019600388901b60f8161c191681555b5050505050600190811b01905550565b838152606060208201526000610a7060608301856107bf565b9050826040830152949350505050565b634e487b7160e01b600052601160045260246000fd5b81810381811115610aa957610aa9610a80565b92915050565b8082028115828204841417610aa957610aa9610a80565b80820180821115610aa957610aa9610a80565b634e487b7160e01b600052603260045260246000fd5b600060018201610b0157610b01610a80565b506001019056fea264697066735822122085b4950cfef4f73409430934b304430f3c1a03f22f6e32ae2290d9c5abb4a00064736f6c63430008120033",
  "devdoc": {
    "kind": "dev",
    "methods": {},
    "version": 1
  },
  "userdoc": {
    "kind": "user",
    "methods": {},
    "version": 1
  },
  "storageLayout": {
    "storage": [
      {
        "astId": 2729,
        "contract": "contracts/NFTCemetery.sol:NFTCemetery",
        "label": "graveyard",
        "offset": 0,
        "slot": "0",
        "type": "t_array(t_struct(Grave)2725_storage)dyn_storage"
      }
    ],
    "types": {
      "t_address": {
        "encoding": "inplace",
        "label": "address",
        "numberOfBytes": "20"
      },
      "t_array(t_struct(Grave)2725_storage)dyn_storage": {
        "base": "t_struct(Grave)2725_storage",
        "encoding": "dynamic_array",
        "label": "struct NFTCemetery.Grave[]",
        "numberOfBytes": "32"
      },
      "t_string_storage": {
        "encoding": "bytes",
        "label": "string",
        "numberOfBytes": "32"
      },
      "t_struct(Grave)2725_storage": {
        "encoding": "inplace",
        "label": "struct NFTCemetery.Grave",
        "members": [
          {
            "astId": 2716,
            "contract": "contracts/NFTCemetery.sol:NFTCemetery",
            "label": "nftOwner",
            "offset": 0,
            "slot": "0",
            "type": "t_address"
          },
          {
            "astId": 2718,
            "contract": "contracts/NFTCemetery.sol:NFTCemetery",
            "label": "nftContract",
            "offset": 0,
            "slot": "1",
            "type": "t_address"
          },
          {
            "astId": 2720,
            "contract": "contracts/NFTCemetery.sol:NFTCemetery",
            "label": "nftId",
            "offset": 0,
            "slot": "2",
            "type": "t_uint256"
          },
          {
            "astId": 2722,
            "contract": "contracts/NFTCemetery.sol:NFTCemetery",
            "label": "inscription",
            "offset": 0,
            "slot": "3",
            "type": "t_string_storage"
          },
          {
            "astId": 2724,
            "contract": "contracts/NFTCemetery.sol:NFTCemetery",
            "label": "burried",
            "offset": 0,
            "slot": "4",
            "type": "t_uint256"
          }
        ],
        "numberOfBytes": "160"
      },
      "t_uint256": {
        "encoding": "inplace",
        "label": "uint256",
        "numberOfBytes": "32"
      }
    }
  }
}