{"contracts/NFTCemetery.sol":{"NFTCemetery":{"abi":[{"anonymous":false,"inputs":[{"indexed":true,"internalType":"address","name":"_nftOwner","type":"address"},{"indexed":true,"internalType":"address","name":"_nftAddress","type":"address"},{"indexed":false,"internalType":"uint256","name":"_nftId","type":"uint256"},{"indexed":false,"internalType":"string","name":"_inscription","type":"string"},{"indexed":false,"internalType":"uint256","name":"_burried","type":"uint256"}],"name":"nftBurried","type":"event"},{"inputs":[],"name":"BURN_ADDRESS","outputs":[{"internalType":"address","name":"","type":"address"}],"stateMutability":"view","type":"function"},{"inputs":[{"internalType":"address","name":"nftAddress","type":"address"},{"internalType":"uint256","name":"tokenId","type":"uint256"},{"internalType":"string","name":"inscription","type":"string"}],"name":"burryMyNFT","outputs":[],"stateMutability":"nonpayable","type":"function"},{"inputs":[{"internalType":"uint256","name":"page","type":"uint256"},{"internalType":"uint256","name":"pageSize","type":"uint256"}],"name":"getGraveyard","outputs":[{"components":[{"internalType":"address","name":"nftOwner","type":"address"},{"internalType":"address","name":"nftContract","type":"address"},{"internalType":"uint256","name":"nftId","type":"uint256"},{"internalType":"string","name":"inscription","type":"string"},{"internalType":"uint256","name":"burried","type":"uint256"}],"internalType":"struct NFTCemetery.Grave[]","name":"","type":"tuple[]"},{"internalType":"uint256","name":"","type":"uint256"}],"stateMutability":"view","type":"function"},{"inputs":[{"internalType":"uint256","name":"","type":"uint256"}],"name":"graveyard","outputs":[{"internalType":"address","name":"nftOwner","type":"address"},{"internalType":"address","name":"nftContract","type":"address"},{"internalType":"uint256","name":"nftId","type":"uint256"},{"internalType":"string","name":"inscription","type":"string"},{"internalType":"uint256","name":"burried","type":"uint256"}],"stateMutability":"view","type":"function"}],"devdoc":{"kind":"dev","methods":{},"version":1},"evm":{"bytecode":{"linkReferences":{},"object":"608060405234801561001057600080fd5b50610b3e806100206000396000f3fe608060405234801561001057600080fd5b506004361061004c5760003560e01c80632680193d1461005157806339b9a26314610066578063b31874f514610090578063fccc2813146100b4575b600080fd5b61006461005f3660046106c4565b6100d4565b005b61007961007436600461079d565b61030e565b604051610087929190610805565b60405180910390f35b6100a361009e3660046108b0565b6105d4565b6040516100879594939291906108c9565b6100bc600181565b6040516001600160a01b039091168152602001610087565b60148151111561013c5760405162461bcd60e51b815260206004820152602860248201527f496e736372697074696f6e206973206c696d6974656420746f203230206368616044820152673930b1ba32b9399760c11b60648201526084015b60405180910390fd5b604051632142170760e11b815233600482015260016024820152604481018390526001600160a01b038416906342842e0e90606401600060405180830381600087803b15801561018b57600080fd5b505af115801561019f573d6000803e3d6000fd5b50506040805160a0810182523381526001600160a01b03878116602083019081529282018781526060830187815243608085015260008054600181018255908052845160059091027f290decd9548b62a8d60345a988386fc84ba6bc95484008f6362f93160ef3e563810180549286166001600160a01b031993841617815596517f290decd9548b62a8d60345a988386fc84ba6bc95484008f6362f93160ef3e564820180549190961692169190911790935590517f290decd9548b62a8d60345a988386fc84ba6bc95484008f6362f93160ef3e565830155519194508493507f290decd9548b62a8d60345a988386fc84ba6bc95484008f6362f93160ef3e56601906102ac9082610997565b50608082015181600401555050836001600160a01b0316336001600160a01b03167f074db99628908764de164dc70bdd015172fa4dddd29dcc199cd2ca917ceb881e85854360405161030093929190610a57565b60405180910390a350505050565b6060600080841161036d5760405162461bcd60e51b8152602060048201526024808201527f70616765206e756d6265722073686f756c6420626520677265617465722074686044820152630616e20360e41b6064820152608401610133565b600083116103c75760405162461bcd60e51b815260206004820152602160248201527f7061676553697a652073686f756c642062652067726561746572207468616e206044820152600360fc1b6064820152608401610133565b6000805490846103d8600188610a96565b6103e29190610aaf565b90506000826103f18784610ac6565b11610405576104008683610ac6565b610407565b825b905060006104158383610a96565b67ffffffffffffffff81111561042d5761042d6106ae565b60405190808252806020026020018201604052801561048557816020015b6040805160a081018252600080825260208083018290529282018190526060808301526080820152825260001990920191018161044b5790505b509050825b828110156105c657600081815481106104a5576104a5610ad9565b60009182526020918290206040805160a081018252600590930290910180546001600160a01b039081168452600182015416938301939093526002830154908201526003820180549192916060840191906104ff9061090e565b80601f016020809104026020016040519081016040528092919081815260200182805461052b9061090e565b80156105785780601f1061054d57610100808354040283529160200191610578565b820191906000526020600020905b81548152906001019060200180831161055b57829003601f168201915b505050505081526020016004820154815250508285836105989190610a96565b815181106105a8576105a8610ad9565b602002602001018190525080806105be90610aef565b91505061048a565b509792965091945050505050565b600081815481106105e457600080fd5b600091825260209091206005909102018054600182015460028301546003840180546001600160a01b0394851696509290931693909290916106259061090e565b80601f01602080910402602001604051908101604052809291908181526020018280546106519061090e565b801561069e5780601f106106735761010080835404028352916020019161069e565b820191906000526020600020905b81548152906001019060200180831161068157829003601f168201915b5050505050908060040154905085565b634e487b7160e01b600052604160045260246000fd5b6000806000606084860312156106d957600080fd5b83356001600160a01b03811681146106f057600080fd5b925060208401359150604084013567ffffffffffffffff8082111561071457600080fd5b818601915086601f83011261072857600080fd5b81358181111561073a5761073a6106ae565b604051601f8201601f19908116603f01168101908382118183101715610762576107626106ae565b8160405282815289602084870101111561077b57600080fd5b8260208601602083013760006020848301015280955050505050509250925092565b600080604083850312156107b057600080fd5b50508035926020909101359150565b6000815180845260005b818110156107e5576020818501810151868301820152016107c9565b506000602082860101526020601f19601f83011685010191505092915050565b60006040808301818452808651808352606092508286019150828160051b8701016020808a0160005b8481101561089b57898403605f19018652815180516001600160a01b03908116865284820151168486015288810151898601528781015160a08987018190529061087a828801826107bf565b6080938401519790930196909652509583019593509082019060010161082e565b50509690960196909652509295945050505050565b6000602082840312156108c257600080fd5b5035919050565b6001600160a01b038681168252851660208201526040810184905260a0606082018190526000906108fc908301856107bf565b90508260808301529695505050505050565b600181811c9082168061092257607f821691505b60208210810361094257634e487b7160e01b600052602260045260246000fd5b50919050565b601f82111561099257600081815260208120601f850160051c8101602086101561096f5750805b601f850160051c820191505b8181101561098e5782815560010161097b565b5050505b505050565b815167ffffffffffffffff8111156109b1576109b16106ae565b6109c5816109bf845461090e565b84610948565b602080601f8311600181146109fa57600084156109e25750858301515b600019600386901b1c1916600185901b17855561098e565b600085815260208120601f198616915b82811015610a2957888601518255948401946001909101908401610a0a565b5085821015610a475787850151600019600388901b60f8161c191681555b5050505050600190811b01905550565b838152606060208201526000610a7060608301856107bf565b9050826040830152949350505050565b634e487b7160e01b600052601160045260246000fd5b81810381811115610aa957610aa9610a80565b92915050565b8082028115828204841417610aa957610aa9610a80565b80820180821115610aa957610aa9610a80565b634e487b7160e01b600052603260045260246000fd5b600060018201610b0157610b01610a80565b506001019056fea264697066735822122085b4950cfef4f73409430934b304430f3c1a03f22f6e32ae2290d9c5abb4a00064736f6c63430008120033","opcodes":"PUSH1 0x80 PUSH1 0x40 MSTORE CALLVALUE DUP1 ISZERO PUSH2 0x10 JUMPI PUSH1 0x0 DUP1 REVERT JUMPDEST POP PUSH2 0xB3E DUP1 PUSH2 0x20 PUSH1 0x0 CODECOPY PUSH1 0x0 RETURN INVALID PUSH1 0x80 PUSH1 0x40 MSTORE CALLVALUE DUP1 ISZERO PUSH2 0x10 JUMPI PUSH1 0x0 DUP1 REVERT JUMPDEST POP PUSH1 0x4 CALLDATASIZE LT PUSH2 0x4C JUMPI PUSH1 0x0 CALLDATALOAD PUSH1 0xE0 SHR DUP1 PUSH4 0x2680193D EQ PUSH2 0x51 JUMPI DUP1 PUSH4 0x39B9A263 EQ PUSH2 0x66 JUMPI DUP1 PUSH4 0xB31874F5 EQ PUSH2 0x90 JUMPI DUP1 PUSH4 0xFCCC2813 EQ PUSH2 0xB4 JUMPI JUMPDEST PUSH1 0x0 DUP1 REVERT JUMPDEST PUSH2 0x64 PUSH2 0x5F CALLDATASIZE PUSH1 0x4 PUSH2 0x6C4 JUMP JUMPDEST PUSH2 0xD4 JUMP JUMPDEST STOP JUMPDEST PUSH2 0x79 PUSH2 0x74 CALLDATASIZE PUSH1 0x4 PUSH2 0x79D JUMP JUMPDEST PUSH2 0x30E JUMP JUMPDEST PUSH1 0x40 MLOAD PUSH2 0x87 SWAP3 SWAP2 SWAP1 PUSH2 0x805 JUMP JUMPDEST PUSH1 0x40 MLOAD DUP1 SWAP2 SUB SWAP1 RETURN JUMPDEST PUSH2 0xA3 PUSH2 0x9E CALLDATASIZE PUSH1 0x4 PUSH2 0x8B0 JUMP JUMPDEST PUSH2 0x5D4 JUMP JUMPDEST PUSH1 0x40 MLOAD PUSH2 0x87 SWAP6 SWAP5 SWAP4 SWAP3 SWAP2 SWAP1 PUSH2 0x8C9 JUMP JUMPDEST PUSH2 0xBC PUSH1 0x1 DUP2 JUMP JUMPDEST PUSH1 0x40 MLOAD PUSH1 0x1 PUSH1 0x1 PUSH1 0xA0 SHL SUB SWAP1 SWAP2 AND DUP2 MSTORE PUSH1 0x20 ADD PUSH2 0x87 JUMP JUMPDEST PUSH1 0x14 DUP2 MLOAD GT ISZERO PUSH2 0x13C JUMPI PUSH1 0x40 MLOAD PUSH3 0x461BCD PUSH1 0xE5 SHL DUP2 MSTORE PUSH1 0x20 PUSH1 0x4 DUP3 ADD MSTORE PUSH1 0x28 PUSH1 0x24 DUP3 ADD MSTORE PUSH32 0x496E736372697074696F6E206973206C696D6974656420746F20323020636861 PUSH1 0x44 DUP3 ADD MSTORE PUSH8 0x3930B1BA32B93997 PUSH1 0xC1 SHL PUSH1 0x64 DUP3 ADD MSTORE PUSH1 0x84 ADD JUMPDEST PUSH1 0x40 MLOAD DUP1 SWAP2 SUB SWAP1 REVERT JUMPDEST PUSH1 0x40 MLOAD PUSH4 0x21421707 PUSH1 0xE1 SHL DUP2 MSTORE CALLER PUSH1 0x4 DUP3 ADD MSTORE PUSH1 0x1 PUSH1 0x24 DUP3 ADD MSTORE PUSH1 0x44 DUP2 ADD DUP4 SWAP1 MSTORE PUSH1 0x1 PUSH1 0x1 PUSH1 0xA0 SHL SUB DUP5 AND SWAP1 PUSH4 0x42842E0E SWAP1 PUSH1 0x64 ADD PUSH1 0x0 PUSH1 0x40 MLOAD DUP1 DUP4 SUB DUP2 PUSH1 0x0 DUP8 DUP1 EXTCODESIZE ISZERO DUP1 ISZERO PUSH2 0x18B JUMPI PUSH1 0x0 DUP1 REVERT JUMPDEST POP GAS CALL ISZERO DUP1 ISZERO PUSH2 0x19F JUMPI RETURNDATASIZE PUSH1 0x0 DUP1 RETURNDATACOPY RETURNDATASIZE PUSH1 0x0 REVERT JUMPDEST POP POP PUSH1 0x40 DUP1 MLOAD PUSH1 0xA0 DUP2 ADD DUP3 MSTORE CALLER DUP2 MSTORE PUSH1 0x1 PUSH1 0x1 PUSH1 0xA0 SHL SUB DUP8 DUP2 AND PUSH1 0x20 DUP4 ADD SWAP1 DUP2 MSTORE SWAP3 DUP3 ADD DUP8 DUP2 MSTORE PUSH1 0x60 DUP4 ADD DUP8 DUP2 MSTORE NUMBER PUSH1 0x80 DUP6 ADD MSTORE PUSH1 0x0 DUP1 SLOAD PUSH1 0x1 DUP2 ADD DUP3 SSTORE SWAP1 DUP1 MSTORE DUP5 MLOAD PUSH1 0x5 SWAP1 SWAP2 MUL PUSH32 0x290DECD9548B62A8D60345A988386FC84BA6BC95484008F6362F93160EF3E563 DUP2 ADD DUP1 SLOAD SWAP3 DUP7 AND PUSH1 0x1 PUSH1 0x1 PUSH1 0xA0 SHL SUB NOT SWAP4 DUP5 AND OR DUP2 SSTORE SWAP7 MLOAD PUSH32 0x290DECD9548B62A8D60345A988386FC84BA6BC95484008F6362F93160EF3E564 DUP3 ADD DUP1 SLOAD SWAP2 SWAP1 SWAP7 AND SWAP3 AND SWAP2 SWAP1 SWAP2 OR SWAP1 SWAP4 SSTORE SWAP1 MLOAD PUSH32 0x290DECD9548B62A8D60345A988386FC84BA6BC95484008F6362F93160EF3E565 DUP4 ADD SSTORE MLOAD SWAP2 SWAP5 POP DUP5 SWAP4 POP PUSH32 0x290DECD9548B62A8D60345A988386FC84BA6BC95484008F6362F93160EF3E566 ADD SWAP1 PUSH2 0x2AC SWAP1 DUP3 PUSH2 0x997 JUMP JUMPDEST POP PUSH1 0x80 DUP3 ADD MLOAD DUP2 PUSH1 0x4 ADD SSTORE POP POP DUP4 PUSH1 0x1 PUSH1 0x1 PUSH1 0xA0 SHL SUB AND CALLER PUSH1 0x1 PUSH1 0x1 PUSH1 0xA0 SHL SUB AND PUSH32 0x74DB99628908764DE164DC70BDD015172FA4DDDD29DCC199CD2CA917CEB881E DUP6 DUP6 NUMBER PUSH1 0x40 MLOAD PUSH2 0x300 SWAP4 SWAP3 SWAP2 SWAP1 PUSH2 0xA57 JUMP JUMPDEST PUSH1 0x40 MLOAD DUP1 SWAP2 SUB SWAP1 LOG3 POP POP POP POP JUMP JUMPDEST PUSH1 0x60 PUSH1 0x0 DUP1 DUP5 GT PUSH2 0x36D JUMPI PUSH1 0x40 MLOAD PUSH3 0x461BCD PUSH1 0xE5 SHL DUP2 MSTORE PUSH1 0x20 PUSH1 0x4 DUP3 ADD MSTORE PUSH1 0x24 DUP1 DUP3 ADD MSTORE PUSH32 0x70616765206E756D6265722073686F756C642062652067726561746572207468 PUSH1 0x44 DUP3 ADD MSTORE PUSH4 0x616E203 PUSH1 0xE4 SHL PUSH1 0x64 DUP3 ADD MSTORE PUSH1 0x84 ADD PUSH2 0x133 JUMP JUMPDEST PUSH1 0x0 DUP4 GT PUSH2 0x3C7 JUMPI PUSH1 0x40 MLOAD PUSH3 0x461BCD PUSH1 0xE5 SHL DUP2 MSTORE PUSH1 0x20 PUSH1 0x4 DUP3 ADD MSTORE PUSH1 0x21 PUSH1 0x24 DUP3 ADD MSTORE PUSH32 0x7061676553697A652073686F756C642062652067726561746572207468616E20 PUSH1 0x44 DUP3 ADD MSTORE PUSH1 0x3 PUSH1 0xFC SHL PUSH1 0x64 DUP3 ADD MSTORE PUSH1 0x84 ADD PUSH2 0x133 JUMP JUMPDEST PUSH1 0x0 DUP1 SLOAD SWAP1 DUP5 PUSH2 0x3D8 PUSH1 0x1 DUP9 PUSH2 0xA96 JUMP JUMPDEST PUSH2 0x3E2 SWAP2 SWAP1 PUSH2 0xAAF JUMP JUMPDEST SWAP1 POP PUSH1 0x0 DUP3 PUSH2 0x3F1 DUP8 DUP5 PUSH2 0xAC6 JUMP JUMPDEST GT PUSH2 0x405 JUMPI PUSH2 0x400 DUP7 DUP4 PUSH2 0xAC6 JUMP JUMPDEST PUSH2 0x407 JUMP JUMPDEST DUP3 JUMPDEST SWAP1 POP PUSH1 0x0 PUSH2 0x415 DUP4 DUP4 PUSH2 0xA96 JUMP JUMPDEST PUSH8 0xFFFFFFFFFFFFFFFF DUP2 GT ISZERO PUSH2 0x42D JUMPI PUSH2 0x42D PUSH2 0x6AE JUMP JUMPDEST PUSH1 0x40 MLOAD SWAP1 DUP1 DUP3 MSTORE DUP1 PUSH1 0x20 MUL PUSH1 0x20 ADD DUP3 ADD PUSH1 0x40 MSTORE DUP1 ISZERO PUSH2 0x485 JUMPI DUP2 PUSH1 0x20 ADD JUMPDEST PUSH1 0x40 DUP1 MLOAD PUSH1 0xA0 DUP2 ADD DUP3 MSTORE PUSH1 0x0 DUP1 DUP3 MSTORE PUSH1 0x20 DUP1 DUP4 ADD DUP3 SWAP1 MSTORE SWAP3 DUP3 ADD DUP2 SWAP1 MSTORE PUSH1 0x60 DUP1 DUP4 ADD MSTORE PUSH1 0x80 DUP3 ADD MSTORE DUP3 MSTORE PUSH1 0x0 NOT SWAP1 SWAP3 ADD SWAP2 ADD DUP2 PUSH2 0x44B JUMPI SWAP1 POP JUMPDEST POP SWAP1 POP DUP3 JUMPDEST DUP3 DUP2 LT ISZERO PUSH2 0x5C6 JUMPI PUSH1 0x0 DUP2 DUP2 SLOAD DUP2 LT PUSH2 0x4A5 JUMPI PUSH2 0x4A5 PUSH2 0xAD9 JUMP JUMPDEST PUSH1 0x0 SWAP2 DUP3 MSTORE PUSH1 0x20 SWAP2 DUP3 SWAP1 KECCAK256 PUSH1 0x40 DUP1 MLOAD PUSH1 0xA0 DUP2 ADD DUP3 MSTORE PUSH1 0x5 SWAP1 SWAP4 MUL SWAP1 SWAP2 ADD DUP1 SLOAD PUSH1 0x1 PUSH1 0x1 PUSH1 0xA0 SHL SUB SWAP1 DUP2 AND DUP5 MSTORE PUSH1 0x1 DUP3 ADD SLOAD AND SWAP4 DUP4 ADD SWAP4 SWAP1 SWAP4 MSTORE PUSH1 0x2 DUP4 ADD SLOAD SWAP1 DUP3 ADD MSTORE PUSH1 0x3 DUP3 ADD DUP1 SLOAD SWAP2 SWAP3 SWAP2 PUSH1 0x60 DUP5 ADD SWAP2 SWAP1 PUSH2 0x4FF SWAP1 PUSH2 0x90E JUMP JUMPDEST DUP1 PUSH1 0x1F ADD PUSH1 0x20 DUP1 SWAP2 DIV MUL PUSH1 0x20 ADD PUSH1 0x40 MLOAD SWAP1 DUP2 ADD PUSH1 0x40 MSTORE DUP1 SWAP3 SWAP2 SWAP1 DUP2 DUP2 MSTORE PUSH1 0x20 ADD DUP3 DUP1 SLOAD PUSH2 0x52B SWAP1 PUSH2 0x90E JUMP JUMPDEST DUP1 ISZERO PUSH2 0x578 JUMPI DUP1 PUSH1 0x1F LT PUSH2 0x54D JUMPI PUSH2 0x100 DUP1 DUP4 SLOAD DIV MUL DUP4 MSTORE SWAP2 PUSH1 0x20 ADD SWAP2 PUSH2 0x578 JUMP JUMPDEST DUP3 ADD SWAP2 SWAP1 PUSH1 0x0 MSTORE PUSH1 0x20 PUSH1 0x0 KECCAK256 SWAP1 JUMPDEST DUP2 SLOAD DUP2 MSTORE SWAP1 PUSH1 0x1 ADD SWAP1 PUSH1 0x20 ADD DUP1 DUP4 GT PUSH2 0x55B JUMPI DUP3 SWAP1 SUB PUSH1 0x1F AND DUP3 ADD SWAP2 JUMPDEST POP POP POP POP POP DUP2 MSTORE PUSH1 0x20 ADD PUSH1 0x4 DUP3 ADD SLOAD DUP2 MSTORE POP POP DUP3 DUP6 DUP4 PUSH2 0x598 SWAP2 SWAP1 PUSH2 0xA96 JUMP JUMPDEST DUP2 MLOAD DUP2 LT PUSH2 0x5A8 JUMPI PUSH2 0x5A8 PUSH2 0xAD9 JUMP JUMPDEST PUSH1 0x20 MUL PUSH1 0x20 ADD ADD DUP2 SWAP1 MSTORE POP DUP1 DUP1 PUSH2 0x5BE SWAP1 PUSH2 0xAEF JUMP JUMPDEST SWAP2 POP POP PUSH2 0x48A JUMP JUMPDEST POP SWAP8 SWAP3 SWAP7 POP SWAP2 SWAP5 POP POP POP POP POP JUMP JUMPDEST PUSH1 0x0 DUP2 DUP2 SLOAD DUP2 LT PUSH2 0x5E4 JUMPI PUSH1 0x0 DUP1 REVERT JUMPDEST PUSH1 0x0 SWAP2 DUP3 MSTORE PUSH1 0x20 SWAP1 SWAP2 KECCAK256 PUSH1 0x5 SWAP1 SWAP2 MUL ADD DUP1 SLOAD PUSH1 0x1 DUP3 ADD SLOAD PUSH1 0x2 DUP4 ADD SLOAD PUSH1 0x3 DUP5 ADD DUP1 SLOAD PUSH1 0x1 PUSH1 0x1 PUSH1 0xA0 SHL SUB SWAP5 DUP6 AND SWAP7 POP SWAP3 SWAP1 SWAP4 AND SWAP4 SWAP1 SWAP3 SWAP1 SWAP2 PUSH2 0x625 SWAP1 PUSH2 0x90E JUMP JUMPDEST DUP1 PUSH1 0x1F ADD PUSH1 0x20 DUP1 SWAP2 DIV MUL PUSH1 0x20 ADD PUSH1 0x40 MLOAD SWAP1 DUP2 ADD PUSH1 0x40 MSTORE DUP1 SWAP3 SWAP2 SWAP1 DUP2 DUP2 MSTORE PUSH1 0x20 ADD DUP3 DUP1 SLOAD PUSH2 0x651 SWAP1 PUSH2 0x90E JUMP JUMPDEST DUP1 ISZERO PUSH2 0x69E JUMPI DUP1 PUSH1 0x1F LT PUSH2 0x673 JUMPI PUSH2 0x100 DUP1 DUP4 SLOAD DIV MUL DUP4 MSTORE SWAP2 PUSH1 0x20 ADD SWAP2 PUSH2 0x69E JUMP JUMPDEST DUP3 ADD SWAP2 SWAP1 PUSH1 0x0 MSTORE PUSH1 0x20 PUSH1 0x0 KECCAK256 SWAP1 JUMPDEST DUP2 SLOAD DUP2 MSTORE SWAP1 PUSH1 0x1 ADD SWAP1 PUSH1 0x20 ADD DUP1 DUP4 GT PUSH2 0x681 JUMPI DUP3 SWAP1 SUB PUSH1 0x1F AND DUP3 ADD SWAP2 JUMPDEST POP POP POP POP POP SWAP1 DUP1 PUSH1 0x4 ADD SLOAD SWAP1 POP DUP6 JUMP JUMPDEST PUSH4 0x4E487B71 PUSH1 0xE0 SHL PUSH1 0x0 MSTORE PUSH1 0x41 PUSH1 0x4 MSTORE PUSH1 0x24 PUSH1 0x0 REVERT JUMPDEST PUSH1 0x0 DUP1 PUSH1 0x0 PUSH1 0x60 DUP5 DUP7 SUB SLT ISZERO PUSH2 0x6D9 JUMPI PUSH1 0x0 DUP1 REVERT JUMPDEST DUP4 CALLDATALOAD PUSH1 0x1 PUSH1 0x1 PUSH1 0xA0 SHL SUB DUP2 AND DUP2 EQ PUSH2 0x6F0 JUMPI PUSH1 0x0 DUP1 REVERT JUMPDEST SWAP3 POP PUSH1 0x20 DUP5 ADD CALLDATALOAD SWAP2 POP PUSH1 0x40 DUP5 ADD CALLDATALOAD PUSH8 0xFFFFFFFFFFFFFFFF DUP1 DUP3 GT ISZERO PUSH2 0x714 JUMPI PUSH1 0x0 DUP1 REVERT JUMPDEST DUP2 DUP7 ADD SWAP2 POP DUP7 PUSH1 0x1F DUP4 ADD SLT PUSH2 0x728 JUMPI PUSH1 0x0 DUP1 REVERT JUMPDEST DUP2 CALLDATALOAD DUP2 DUP2 GT ISZERO PUSH2 0x73A JUMPI PUSH2 0x73A PUSH2 0x6AE JUMP JUMPDEST PUSH1 0x40 MLOAD PUSH1 0x1F DUP3 ADD PUSH1 0x1F NOT SWAP1 DUP2 AND PUSH1 0x3F ADD AND DUP2 ADD SWAP1 DUP4 DUP3 GT DUP2 DUP4 LT OR ISZERO PUSH2 0x762 JUMPI PUSH2 0x762 PUSH2 0x6AE JUMP JUMPDEST DUP2 PUSH1 0x40 MSTORE DUP3 DUP2 MSTORE DUP10 PUSH1 0x20 DUP5 DUP8 ADD ADD GT ISZERO PUSH2 0x77B JUMPI PUSH1 0x0 DUP1 REVERT JUMPDEST DUP3 PUSH1 0x20 DUP7 ADD PUSH1 0x20 DUP4 ADD CALLDATACOPY PUSH1 0x0 PUSH1 0x20 DUP5 DUP4 ADD ADD MSTORE DUP1 SWAP6 POP POP POP POP POP POP SWAP3 POP SWAP3 POP SWAP3 JUMP JUMPDEST PUSH1 0x0 DUP1 PUSH1 0x40 DUP4 DUP6 SUB SLT ISZERO PUSH2 0x7B0 JUMPI PUSH1 0x0 DUP1 REVERT JUMPDEST POP POP DUP1 CALLDATALOAD SWAP3 PUSH1 0x20 SWAP1 SWAP2 ADD CALLDATALOAD SWAP2 POP JUMP JUMPDEST PUSH1 0x0 DUP2 MLOAD DUP1 DUP5 MSTORE PUSH1 0x0 JUMPDEST DUP2 DUP2 LT ISZERO PUSH2 0x7E5 JUMPI PUSH1 0x20 DUP2 DUP6 ADD DUP2 ADD MLOAD DUP7 DUP4 ADD DUP3 ADD MSTORE ADD PUSH2 0x7C9 JUMP JUMPDEST POP PUSH1 0x0 PUSH1 0x20 DUP3 DUP7 ADD ADD MSTORE PUSH1 0x20 PUSH1 0x1F NOT PUSH1 0x1F DUP4 ADD AND DUP6 ADD ADD SWAP2 POP POP SWAP3 SWAP2 POP POP JUMP JUMPDEST PUSH1 0x0 PUSH1 0x40 DUP1 DUP4 ADD DUP2 DUP5 MSTORE DUP1 DUP7 MLOAD DUP1 DUP4 MSTORE PUSH1 0x60 SWAP3 POP DUP3 DUP7 ADD SWAP2 POP DUP3 DUP2 PUSH1 0x5 SHL DUP8 ADD ADD PUSH1 0x20 DUP1 DUP11 ADD PUSH1 0x0 JUMPDEST DUP5 DUP2 LT ISZERO PUSH2 0x89B JUMPI DUP10 DUP5 SUB PUSH1 0x5F NOT ADD DUP7 MSTORE DUP2 MLOAD DUP1 MLOAD PUSH1 0x1 PUSH1 0x1 PUSH1 0xA0 SHL SUB SWAP1 DUP2 AND DUP7 MSTORE DUP5 DUP3 ADD MLOAD AND DUP5 DUP7 ADD MSTORE DUP9 DUP2 ADD MLOAD DUP10 DUP7 ADD MSTORE DUP8 DUP2 ADD MLOAD PUSH1 0xA0 DUP10 DUP8 ADD DUP2 SWAP1 MSTORE SWAP1 PUSH2 0x87A DUP3 DUP9 ADD DUP3 PUSH2 0x7BF JUMP JUMPDEST PUSH1 0x80 SWAP4 DUP5 ADD MLOAD SWAP8 SWAP1 SWAP4 ADD SWAP7 SWAP1 SWAP7 MSTORE POP SWAP6 DUP4 ADD SWAP6 SWAP4 POP SWAP1 DUP3 ADD SWAP1 PUSH1 0x1 ADD PUSH2 0x82E JUMP JUMPDEST POP POP SWAP7 SWAP1 SWAP7 ADD SWAP7 SWAP1 SWAP7 MSTORE POP SWAP3 SWAP6 SWAP5 POP POP POP POP POP JUMP JUMPDEST PUSH1 0x0 PUSH1 0x20 DUP3 DUP5 SUB SLT ISZERO PUSH2 0x8C2 JUMPI PUSH1 0x0 DUP1 REVERT JUMPDEST POP CALLDATALOAD SWAP2 SWAP1 POP JUMP JUMPDEST PUSH1 0x1 PUSH1 0x1 PUSH1 0xA0 SHL SUB DUP7 DUP2 AND DUP3 MSTORE DUP6 AND PUSH1 0x20 DUP3 ADD MSTORE PUSH1 0x40 DUP2 ADD DUP5 SWAP1 MSTORE PUSH1 0xA0 PUSH1 0x60 DUP3 ADD DUP2 SWAP1 MSTORE PUSH1 0x0 SWAP1 PUSH2 0x8FC SWAP1 DUP4 ADD DUP6 PUSH2 0x7BF JUMP JUMPDEST SWAP1 POP DUP3 PUSH1 0x80 DUP4 ADD MSTORE SWAP7 SWAP6 POP POP POP POP POP POP JUMP JUMPDEST PUSH1 0x1 DUP2 DUP2 SHR SWAP1 DUP3 AND DUP1 PUSH2 0x922 JUMPI PUSH1 0x7F DUP3 AND SWAP2 POP JUMPDEST PUSH1 0x20 DUP3 LT DUP2 SUB PUSH2 0x942 JUMPI PUSH4 0x4E487B71 PUSH1 0xE0 SHL PUSH1 0x0 MSTORE PUSH1 0x22 PUSH1 0x4 MSTORE PUSH1 0x24 PUSH1 0x0 REVERT JUMPDEST POP SWAP2 SWAP1 POP JUMP JUMPDEST PUSH1 0x1F DUP3 GT ISZERO PUSH2 0x992 JUMPI PUSH1 0x0 DUP2 DUP2 MSTORE PUSH1 0x20 DUP2 KECCAK256 PUSH1 0x1F DUP6 ADD PUSH1 0x5 SHR DUP2 ADD PUSH1 0x20 DUP7 LT ISZERO PUSH2 0x96F JUMPI POP DUP1 JUMPDEST PUSH1 0x1F DUP6 ADD PUSH1 0x5 SHR DUP3 ADD SWAP2 POP JUMPDEST DUP2 DUP2 LT ISZERO PUSH2 0x98E JUMPI DUP3 DUP2 SSTORE PUSH1 0x1 ADD PUSH2 0x97B JUMP JUMPDEST POP POP POP JUMPDEST POP POP POP JUMP JUMPDEST DUP2 MLOAD PUSH8 0xFFFFFFFFFFFFFFFF DUP2 GT ISZERO PUSH2 0x9B1 JUMPI PUSH2 0x9B1 PUSH2 0x6AE JUMP JUMPDEST PUSH2 0x9C5 DUP2 PUSH2 0x9BF DUP5 SLOAD PUSH2 0x90E JUMP JUMPDEST DUP5 PUSH2 0x948 JUMP JUMPDEST PUSH1 0x20 DUP1 PUSH1 0x1F DUP4 GT PUSH1 0x1 DUP2 EQ PUSH2 0x9FA JUMPI PUSH1 0x0 DUP5 ISZERO PUSH2 0x9E2 JUMPI POP DUP6 DUP4 ADD MLOAD JUMPDEST PUSH1 0x0 NOT PUSH1 0x3 DUP7 SWAP1 SHL SHR NOT AND PUSH1 0x1 DUP6 SWAP1 SHL OR DUP6 SSTORE PUSH2 0x98E JUMP JUMPDEST PUSH1 0x0 DUP6 DUP2 MSTORE PUSH1 0x20 DUP2 KECCAK256 PUSH1 0x1F NOT DUP7 AND SWAP2 JUMPDEST DUP3 DUP2 LT ISZERO PUSH2 0xA29 JUMPI DUP9 DUP7 ADD MLOAD DUP3 SSTORE SWAP5 DUP5 ADD SWAP5 PUSH1 0x1 SWAP1 SWAP2 ADD SWAP1 DUP5 ADD PUSH2 0xA0A JUMP JUMPDEST POP DUP6 DUP3 LT ISZERO PUSH2 0xA47 JUMPI DUP8 DUP6 ADD MLOAD PUSH1 0x0 NOT PUSH1 0x3 DUP9 SWAP1 SHL PUSH1 0xF8 AND SHR NOT AND DUP2 SSTORE JUMPDEST POP POP POP POP POP PUSH1 0x1 SWAP1 DUP2 SHL ADD SWAP1 SSTORE POP JUMP JUMPDEST DUP4 DUP2 MSTORE PUSH1 0x60 PUSH1 0x20 DUP3 ADD MSTORE PUSH1 0x0 PUSH2 0xA70 PUSH1 0x60 DUP4 ADD DUP6 PUSH2 0x7BF JUMP JUMPDEST SWAP1 POP DUP3 PUSH1 0x40 DUP4 ADD MSTORE SWAP5 SWAP4 POP POP POP POP JUMP JUMPDEST PUSH4 0x4E487B71 PUSH1 0xE0 SHL PUSH1 0x0 MSTORE PUSH1 0x11 PUSH1 0x4 MSTORE PUSH1 0x24 PUSH1 0x0 REVERT JUMPDEST DUP2 DUP2 SUB DUP2 DUP2 GT ISZERO PUSH2 0xAA9 JUMPI PUSH2 0xAA9 PUSH2 0xA80 JUMP JUMPDEST SWAP3 SWAP2 POP POP JUMP JUMPDEST DUP1 DUP3 MUL DUP2 ISZERO DUP3 DUP3 DIV DUP5 EQ OR PUSH2 0xAA9 JUMPI PUSH2 0xAA9 PUSH2 0xA80 JUMP JUMPDEST DUP1 DUP3 ADD DUP1 DUP3 GT ISZERO PUSH2 0xAA9 JUMPI PUSH2 0xAA9 PUSH2 0xA80 JUMP JUMPDEST PUSH4 0x4E487B71 PUSH1 0xE0 SHL PUSH1 0x0 MSTORE PUSH1 0x32 PUSH1 0x4 MSTORE PUSH1 0x24 PUSH1 0x0 REVERT JUMPDEST PUSH1 0x0 PUSH1 0x1 DUP3 ADD PUSH2 0xB01 JUMPI PUSH2 0xB01 PUSH2 0xA80 JUMP JUMPDEST POP PUSH1 0x1 ADD SWAP1 JUMP INVALID LOG2 PUSH5 0x6970667358 0x22 SLT KECCAK256 DUP6 0xB4 SWAP6 0xC INVALID DELEGATECALL 0xF7 CALLVALUE MULMOD NUMBER MULMOD CALLVALUE 0xB3 DIV NUMBER 0xF EXTCODECOPY BYTE SUB CALLCODE 0x2F PUSH15 0x32AE2290D9C5ABB4A00064736F6C63 NUMBER STOP ADDMOD SLT STOP CALLER "},"gasEstimates":{"creation":{"codeDepositCost":"575600","executionCost":"606","totalCost":"576206"},"external":{"BURN_ADDRESS()":"260","burryMyNFT(address,uint256,string)":"infinite","getGraveyard(uint256,uint256)":"infinite","graveyard(uint256)":"infinite"}},"methodIdentifiers":{"BURN_ADDRESS()":"fccc2813","burryMyNFT(address,uint256,string)":"2680193d","getGraveyard(uint256,uint256)":"39b9a263","graveyard(uint256)":"b31874f5"}},"storageLayout":{"storage":[{"astId":2729,"contract":"contracts/NFTCemetery.sol:NFTCemetery","label":"graveyard","offset":0,"slot":"0","type":"t_array(t_struct(Grave)2725_storage)dyn_storage"}],"types":{"t_address":{"encoding":"inplace","label":"address","numberOfBytes":"20"},"t_array(t_struct(Grave)2725_storage)dyn_storage":{"base":"t_struct(Grave)2725_storage","encoding":"dynamic_array","label":"struct NFTCemetery.Grave[]","numberOfBytes":"32"},"t_string_storage":{"encoding":"bytes","label":"string","numberOfBytes":"32"},"t_struct(Grave)2725_storage":{"encoding":"inplace","label":"struct NFTCemetery.Grave","members":[{"astId":2716,"contract":"contracts/NFTCemetery.sol:NFTCemetery","label":"nftOwner","offset":0,"slot":"0","type":"t_address"},{"astId":2718,"contract":"contracts/NFTCemetery.sol:NFTCemetery","label":"nftContract","offset":0,"slot":"1","type":"t_address"},{"astId":2720,"contract":"contracts/NFTCemetery.sol:NFTCemetery","label":"nftId","offset":0,"slot":"2","type":"t_uint256"},{"astId":2722,"contract":"contracts/NFTCemetery.sol:NFTCemetery","label":"inscription","offset":0,"slot":"3","type":"t_string_storage"},{"astId":2724,"contract":"contracts/NFTCemetery.sol:NFTCemetery","label":"burried","offset":0,"slot":"4","type":"t_uint256"}],"numberOfBytes":"160"},"t_uint256":{"encoding":"inplace","label":"uint256","numberOfBytes":"32"}}},"userdoc":{"kind":"user","methods":{},"version":1}}}}